{
  "contractName": "RentalAgreement",
  "abi": [
    {
      "constant": true,
      "inputs": [],
      "name": "createdTimestamp",
      "outputs": [
        {
          "name": "",
          "type": "uint256"
        }
      ],
      "payable": false,
      "stateMutability": "view",
      "type": "function"
    },
    {
      "constant": true,
      "inputs": [
        {
          "name": "",
          "type": "uint256"
        }
      ],
      "name": "paidrents",
      "outputs": [
        {
          "name": "id",
          "type": "uint256"
        },
        {
          "name": "value",
          "type": "uint256"
        }
      ],
      "payable": false,
      "stateMutability": "view",
      "type": "function"
    },
    {
      "constant": true,
      "inputs": [],
      "name": "rent",
      "outputs": [
        {
          "name": "",
          "type": "uint256"
        }
      ],
      "payable": false,
      "stateMutability": "view",
      "type": "function"
    },
    {
      "constant": true,
      "inputs": [],
      "name": "tenant",
      "outputs": [
        {
          "name": "",
          "type": "address"
        }
      ],
      "payable": false,
      "stateMutability": "view",
      "type": "function"
    },
    {
      "constant": true,
      "inputs": [],
      "name": "state",
      "outputs": [
        {
          "name": "",
          "type": "uint8"
        }
      ],
      "payable": false,
      "stateMutability": "view",
      "type": "function"
    },
    {
      "constant": true,
      "inputs": [],
      "name": "landlord",
      "outputs": [
        {
          "name": "",
          "type": "address"
        }
      ],
      "payable": false,
      "stateMutability": "view",
      "type": "function"
    },
    {
      "constant": true,
      "inputs": [],
      "name": "house",
      "outputs": [
        {
          "name": "",
          "type": "string"
        }
      ],
      "payable": false,
      "stateMutability": "view",
      "type": "function"
    },
    {
      "inputs": [
        {
          "name": "_rent",
          "type": "uint256"
        },
        {
          "name": "_house",
          "type": "string"
        }
      ],
      "payable": false,
      "stateMutability": "nonpayable",
      "type": "constructor"
    },
    {
      "anonymous": false,
      "inputs": [],
      "name": "agreementConfirmed",
      "type": "event"
    },
    {
      "anonymous": false,
      "inputs": [],
      "name": "paidRent",
      "type": "event"
    },
    {
      "anonymous": false,
      "inputs": [],
      "name": "contractTerminated",
      "type": "event"
    },
    {
      "constant": true,
      "inputs": [],
      "name": "getHouse",
      "outputs": [
        {
          "name": "",
          "type": "string"
        }
      ],
      "payable": false,
      "stateMutability": "view",
      "type": "function"
    },
    {
      "constant": true,
      "inputs": [],
      "name": "getLandlord",
      "outputs": [
        {
          "name": "",
          "type": "address"
        }
      ],
      "payable": false,
      "stateMutability": "view",
      "type": "function"
    },
    {
      "constant": true,
      "inputs": [],
      "name": "getTenant",
      "outputs": [
        {
          "name": "",
          "type": "address"
        }
      ],
      "payable": false,
      "stateMutability": "view",
      "type": "function"
    },
    {
      "constant": true,
      "inputs": [],
      "name": "getRent",
      "outputs": [
        {
          "name": "",
          "type": "uint256"
        }
      ],
      "payable": false,
      "stateMutability": "view",
      "type": "function"
    },
    {
      "constant": true,
      "inputs": [],
      "name": "getContractCreated",
      "outputs": [
        {
          "name": "",
          "type": "uint256"
        }
      ],
      "payable": false,
      "stateMutability": "view",
      "type": "function"
    },
    {
      "constant": true,
      "inputs": [],
      "name": "getContractAddress",
      "outputs": [
        {
          "name": "",
          "type": "address"
        }
      ],
      "payable": false,
      "stateMutability": "view",
      "type": "function"
    },
    {
      "constant": false,
      "inputs": [],
      "name": "getState",
      "outputs": [
        {
          "name": "",
          "type": "uint8"
        }
      ],
      "payable": false,
      "stateMutability": "nonpayable",
      "type": "function"
    },
    {
      "constant": false,
      "inputs": [],
      "name": "confirmAgreement",
      "outputs": [],
      "payable": false,
      "stateMutability": "nonpayable",
      "type": "function"
    },
    {
      "constant": false,
      "inputs": [],
      "name": "payRent",
      "outputs": [],
      "payable": false,
      "stateMutability": "nonpayable",
      "type": "function"
    },
    {
      "constant": false,
      "inputs": [],
      "name": "terminateContract",
      "outputs": [],
      "payable": false,
      "stateMutability": "nonpayable",
      "type": "function"
    }
  ],
  "bytecode": "0x6060604052341561000f57600080fd5b604051610d77380380610d77833981016040528080519060200190919080518201919050508160028190555080600390805190602001906100519291906100a1565b5033600460006101000a81548173ffffffffffffffffffffffffffffffffffffffff021916908373ffffffffffffffffffffffffffffffffffffffff160217905550426001819055505050610146565b828054600181600116156101000203166002900490600052602060002090601f016020900481019282601f106100e257805160ff1916838001178555610110565b82800160010185558215610110579182015b8281111561010f5782518255916020019190600101906100f4565b5b50905061011d9190610121565b5090565b61014391905b8082111561013f576000816000905550600101610127565b5090565b90565b610c22806101556000396000f3006060604052600436106100f1576000357c0100000000000000000000000000000000000000000000000000000000900463ffffffff16806304e2064f146100f65780630b3bb0241461018457806310309781146101d95780631865c57d146102025780632fd949ca1461023957806332a2c5d01461024e57806354dc7ccd146102a357806374017cee146102b857806382996d9f146102f65780639b9bedf81461031f578063a709c4fe14610348578063adf077911461035d578063c19d93fb146103b2578063dc1997ea146103e9578063e07195641461043e578063f502236d14610467578063ff9b3acf146104bc575b600080fd5b341561010157600080fd5b61010961054a565b6040518080602001828103825283818151815260200191508051906020019080838360005b8381101561014957808201518184015260208101905061012e565b50505050905090810190601f1680156101765780820380516001836020036101000a031916815260200191505b509250505060405180910390f35b341561018f57600080fd5b6101976105f2565b604051808273ffffffffffffffffffffffffffffffffffffffff1673ffffffffffffffffffffffffffffffffffffffff16815260200191505060405180910390f35b34156101e457600080fd5b6101ec61061c565b6040518082815260200191505060405180910390f35b341561020d57600080fd5b610215610622565b6040518082600281111561022557fe5b60ff16815260200191505060405180910390f35b341561024457600080fd5b61024c610639565b005b341561025957600080fd5b610261610756565b604051808273ffffffffffffffffffffffffffffffffffffffff1673ffffffffffffffffffffffffffffffffffffffff16815260200191505060405180910390f35b34156102ae57600080fd5b6102b661075e565b005b34156102c357600080fd5b6102d96004808035906020019091905050610886565b604051808381526020018281526020019250505060405180910390f35b341561030157600080fd5b6103096108b9565b6040518082815260200191505060405180910390f35b341561032a57600080fd5b6103326108bf565b6040518082815260200191505060405180910390f35b341561035357600080fd5b61035b6108c9565b005b341561036857600080fd5b610370610a50565b604051808273ffffffffffffffffffffffffffffffffffffffff1673ffffffffffffffffffffffffffffffffffffffff16815260200191505060405180910390f35b34156103bd57600080fd5b6103c5610a76565b604051808260028111156103d557fe5b60ff16815260200191505060405180910390f35b34156103f457600080fd5b6103fc610a89565b604051808273ffffffffffffffffffffffffffffffffffffffff1673ffffffffffffffffffffffffffffffffffffffff16815260200191505060405180910390f35b341561044957600080fd5b610451610aaf565b6040518082815260200191505060405180910390f35b341561047257600080fd5b61047a610ab9565b604051808273ffffffffffffffffffffffffffffffffffffffff1673ffffffffffffffffffffffffffffffffffffffff16815260200191505060405180910390f35b34156104c757600080fd5b6104cf610ae3565b6040518080602001828103825283818151815260200191508051906020019080838360005b8381101561050f5780820151818401526020810190506104f4565b50505050905090810190601f16801561053c5780820380516001836020036101000a031916815260200191505b509250505060405180910390f35b610552610b81565b60038054600181600116156101000203166002900480601f0160208091040260200160405190810160405280929190818152602001828054600181600116156101000203166002900480156105e85780601f106105bd576101008083540402835291602001916105e8565b820191906000526020600020905b8154815290600101906020018083116105cb57829003601f168201915b5050505050905090565b6000600560009054906101000a900473ffffffffffffffffffffffffffffffffffffffff16905090565b60015481565b6000600560149054906101000a900460ff16905090565b600460009054906101000a900473ffffffffffffffffffffffffffffffffffffffff1673ffffffffffffffffffffffffffffffffffffffff163373ffffffffffffffffffffffffffffffffffffffff1614151561069557600080fd5b7f1a2c2a2bbbf9d5032486504e1d9485c159203e17fe39ab8eaeea298a97ad3f6860405160405180910390a1600460009054906101000a900473ffffffffffffffffffffffffffffffffffffffff1673ffffffffffffffffffffffffffffffffffffffff166108fc3073ffffffffffffffffffffffffffffffffffffffff16319081150290604051600060405180830381858888f19350505050506002600560146101000a81548160ff0219169083600281111561074f57fe5b0217905550565b600030905090565b600080600281111561076c57fe5b600560149054906101000a900460ff16600281111561078757fe5b14151561079357600080fd5b600460009054906101000a900473ffffffffffffffffffffffffffffffffffffffff1673ffffffffffffffffffffffffffffffffffffffff163373ffffffffffffffffffffffffffffffffffffffff1614158015156107f157600080fd5b7fff274055432556a9f474da8c11df1d265e3bbf0e8eafad4f12bd72a9c175b4db60405160405180910390a133600560006101000a81548173ffffffffffffffffffffffffffffffffffffffff021916908373ffffffffffffffffffffffffffffffffffffffff1602179055506001600560146101000a81548160ff0219169083600281111561087d57fe5b02179055505050565b60008181548110151561089557fe5b90600052602060002090600202016000915090508060000154908060010154905082565b60025481565b6000600154905090565b600560009054906101000a900473ffffffffffffffffffffffffffffffffffffffff1673ffffffffffffffffffffffffffffffffffffffff163373ffffffffffffffffffffffffffffffffffffffff1614151561092557600080fd5b600180600281111561093357fe5b600560149054906101000a900460ff16600281111561094e57fe5b14151561095a57600080fd5b600254341480151561096b57600080fd5b7fbade71dff67ec59cb8a653f4f7a5cd050285c740376f33d8570b0639d5a6d14960405160405180910390a1600460009054906101000a900473ffffffffffffffffffffffffffffffffffffffff1673ffffffffffffffffffffffffffffffffffffffff166108fc349081150290604051600060405180830381858888f193505050505060008054806001018281610a039190610b95565b916000526020600020906002020160006040805190810160405280600160008054905001815260200134815250909190915060008201518160000155602082015181600101555050505050565b600560009054906101000a900473ffffffffffffffffffffffffffffffffffffffff1681565b600560149054906101000a900460ff1681565b600460009054906101000a900473ffffffffffffffffffffffffffffffffffffffff1681565b6000600254905090565b6000600460009054906101000a900473ffffffffffffffffffffffffffffffffffffffff16905090565b60038054600181600116156101000203166002900480601f016020809104026020016040519081016040528092919081815260200182805460018160011615610100020316600290048015610b795780601f10610b4e57610100808354040283529160200191610b79565b820191906000526020600020905b815481529060010190602001808311610b5c57829003601f168201915b505050505081565b602060405190810160405280600081525090565b815481835581811511610bc257600202816002028360005260206000209182019101610bc19190610bc7565b5b505050565b610bf391905b80821115610bef57600080820160009055600182016000905550600201610bcd565b5090565b905600a165627a7a72305820dbdc25b68e46b8479355bf4aecc92e1bf69b0952f85bdb1e07cf0a6aaf6768ed0029",
  "source": "pragma solidity ^0.4.0;\r\ncontract RentalAgreement {\r\n    /* This declares a new complex type which will hold the paid rents*/\r\n    struct PaidRent {\r\n    uint id; /* The paid rent id*/\r\n    uint value; /* The amount of rent that is paid*/\r\n    }\r\n\r\n    PaidRent[] public paidrents;\r\n\r\n    uint public createdTimestamp;\r\n\r\n    uint public rent;\r\n    /* Combination of zip code and house number*/\r\n    string public house;\r\n\r\n    address public landlord;\r\n\r\n    address public tenant;\r\n    enum State {Created, Started, Terminated}\r\n    State public state;\r\n\r\n    function RentalAgreement(uint _rent, string _house) {\r\n        rent = _rent;\r\n        house = _house;\r\n        landlord = msg.sender;\r\n        createdTimestamp = block.timestamp;\r\n    }\r\n    modifier require(bool _condition) {\r\n        if (!_condition) throw;\r\n        _;\r\n    }\r\n    modifier onlyLandlord() {\r\n        if (msg.sender != landlord) throw;\r\n        _;\r\n    }\r\n    modifier onlyTenant() {\r\n        if (msg.sender != tenant) throw;\r\n        _;\r\n    }\r\n    modifier inState(State _state) {\r\n        if (state != _state) throw;\r\n        _;\r\n    }\r\n\r\n    /* We also have some getters so that we can read the values\r\n    from the blockchain at any time */\r\n    function getPaidRents() internal returns (PaidRent[]) {\r\n        return paidrents;\r\n    }\r\n\r\n    function getHouse() constant returns (string) {\r\n        return house;\r\n    }\r\n\r\n    function getLandlord() constant returns (address) {\r\n        return landlord;\r\n    }\r\n\r\n    function getTenant() constant returns (address) {\r\n        return tenant;\r\n    }\r\n\r\n    function getRent() constant returns (uint) {\r\n        return rent;\r\n    }\r\n\r\n    function getContractCreated() constant returns (uint) {\r\n        return createdTimestamp;\r\n    }\r\n\r\n    function getContractAddress() constant returns (address) {\r\n        return this;\r\n    }\r\n\r\n    function getState() returns (State) {\r\n        return state;\r\n    }\r\n\r\n    /* Events for DApps to listen to */\r\n    event agreementConfirmed();\r\n\r\n    event paidRent();\r\n\r\n    event contractTerminated();\r\n\r\n    /* Confirm the lease agreement as tenant*/\r\n    function confirmAgreement()\r\n    inState(State.Created)\r\n    require(msg.sender != landlord)\r\n    {\r\n        agreementConfirmed();\r\n        tenant = msg.sender;\r\n        state = State.Started;\r\n    }\r\n\r\n    function payRent()\r\n    onlyTenant\r\n    inState(State.Started)\r\n    require(msg.value == rent)\r\n    {\r\n        paidRent();\r\n        landlord.send(msg.value);\r\n        paidrents.push(PaidRent({\r\n        id : paidrents.length + 1,\r\n        value : msg.value\r\n        }));\r\n    }\r\n    /* Terminate the contract so the tenant can’t pay rent anymore,\r\n    and the contract is terminated */\r\n    function terminateContract()\r\n    onlyLandlord\r\n    {\r\n        contractTerminated();\r\n        landlord.send(this.balance);\r\n        /* If there is any value on the\r\n               contract send it to the landlord*/\r\n        state = State.Terminated;\r\n    }\r\n}",
  "sourcePath": "C:\\Users\\home\\training_feb8\\contracts\\RentalAgreement.sol",
  "compiler": {
    "name": "solc",
    "version": "0.4.19+commit.c4cbbb05.Emscripten.clang"
  },
  "schemaVersion": "1.0.1",
  "updatedAt": "2018-02-07T06:23:12.117Z"
}